S00E000074696D6572732E7372656382
S11300000C9472000C947C000C947C000C947C0086
S11300100C947C000C947C000C947C000C947C006C
S11300200C947C000C947C000C947C000C947C005C
S11300300C947C000C947C000C947C000C947C004C
S11300400C947C000C947C000C947C000C947C003C
S11300500C947C000C947C000C947C000C947C002C
S11300600C947C000C947C000C947C000C947C001C
S11300700C947C000C947C000C947C000C947C000C
S11300800C947C000C947C000C947C000C947C00FC
S11300900C947C000C947C000C947C000C947C00EC
S11300A00C947C000C947C000C947C000C947C00DC
S11300B00C947C000C947C000C947C000C947C00CC
S11300C00C947C000C947C000C947C000C947C00BC
S11300D00C947C000C947C000C947C000C947C00AC
S11300E00C947C0011241FBECFEFD1E2DEBFCDBF44
S11300F00E9494000C9497000C940000E0EAF0E055
S1130100808180648083E1EAF0E080818A6080837A
S113011080E090EA9093A9008093A800E1E0F1E0E8
S113012080818860808308950E947E00FFCFF894C8
S1050130FFCFFB
S9030000FC
