:100000000C9472000C9489000C9489000C94890063
:100010000C9489000C9489000C9489000C9489003C
:100020000C9489000C9489000C9489000C9489002C
:100030000C9489000C9489000C9489000C9489001C
:100040000C9489000C9489000C9489000C9489000C
:100050000C9489000C9489000C9489000C948900FC
:100060000C9489000C9489000C9489000C948900EC
:100070000C9489000C9489000C9489000C948900DC
:100080000C9489000C9489000C9489000C948900CC
:100090000C9489000C9489000C9489000C948900BC
:1000A0000C9489000C9489000C9489000C948900AC
:1000B0000C9489000C9489000C9489000C9489009C
:1000C0000C9489000C9489000C9489000C9489008C
:1000D0000C9489000C9489000C9489000C9489007C
:1000E0000C94890011241FBECFEFD1E2DEBFCDBF3B
:1000F00012E0A0E0B2E0EAE6F3E000E00BBF02C0ED
:1001000007900D92A436B107D9F70E94A8010C946C
:10011000B3010C94000080EF809304018FE0809382
:1001200005018FEF809301011092020108958091E3
:10013000030190E0089584E090E041E050E09A01EE
:10014000082E02C0220F331F0A94E2F7622F609537
:10015000607F60930501609103016F706F3029F437
:1001600001968830910551F0EACF8FE08093050128
:1001700020953095207F3070C901089508951F9310
:10018000109103010E949B00212F30E0282B392B76
:10019000273B310509F442C0283B310598F42B3741
:1001A000310551F12C37310528F42737310509F095
:1001B00059C01DC02D37310529F12E37310509F001
:1001C00051C026C02E3B3105D9F12F3B310540F4FB
:1001D0002B3B310549F12D3B310509F043C02AC0C5
:1001E000273D310599F12B3D3105E1F535C01092E0
:1001F000020180E092E036C081E08093020189E054
:1002000092E030C082E08093020182E192E02AC055
:1002100083E0809302018BE192E024C084E080932C
:10022000020184E292E01EC085E0809302018DE22B
:1002300092E018C086E08093020186E392E012C04B
:1002400087E0809302018FE392E00CC088E0809306
:10025000020188E492E006C089E08093020181E512
:1002600092E000C01F910895E1E0F1E08081806894
:100270008083E2E0F1E0808180688083089584B12A
:100280008E6084B998E090930701EAE0F1E0808104
:100290008F608083299AE8E0F1E08081877F808306
:1002A00095B9089585B192E0892785B985B18927E7
:1002B00085B90895E8E0F1E0808198E0892780839E
:1002C000808189278083089581E080930B010895C0
:1002D000EF92FF920F931F93DF93CF93CDB7DEB7CB
:1002E00028970FB6F894DEBF0FBECDBFDE01119682
:1002F000EAE5F2E088E001900D928150E1F78E018D
:100300000F5F1F4F89E0E82EF12CEC0EFD1EF80167
:1003100081918F01813011F42A9A06C0882311F44B
:100320002A9802C00E9434010E9452010E151F0536
:1003300071F70E945A0128960FB6F894DEBF0FBEDF
:10034000CDBFCF91DF911F910F91FF90EF90089556
:100350001F930E943F010E948B0011E010930B013C
:0A0360000E946801FBCFF894FFCF64
:10036A0031313131313130300030313130303030AB
:10037A0030003131303131303130003131313130CA
:10038A0030313000303131303031313000313031BC
:10039A0031303131300031303131313131300031A9
:1003AA00313130303030300031313131313131306A
:1003BA00003131313130313130006765745F636843
:0403CA00617200005C
:00000001FF
