:100000000C9472000C9484000C9484000C94840072
:100010000C9484000C9486000C9484000C9484004E
:100020000C9484000C9484000C9484000C94840040
:100030000C9484000C9484000C9484000C94840030
:100040000C9484000C9484000C9484000C94840020
:100050000C9484000C9484000C9484000C94840010
:100060000C9484000C9484000C9484000C94840000
:100070000C9484000C9484000C9484000C948400F0
:100080000C9484000C9484000C9484000C948400E0
:100090000C9484000C9484000C9484000C948400D0
:1000A0000C9484000C9484000C9484000C948400C0
:1000B0000C9484000C9484000C9484000C948400B0
:1000C0000C9484000C9484000C9484000C948400A0
:1000D0000C9484000C9484000C9484000C94840090
:1000E0000C94840011241FBECFEFD1E2DEBFCDBF40
:1000F00012E0A0E0B2E001C01D92A230B107E1F72A
:100100000E94B1000C94B5000C9400001F920F9255
:100110000FB60F9211248F939F93809100029091BC
:1001200001020196909301028093000280930201E4
:1001300085B190E2892785B99F918F910F900FBE6D
:100140000F901F9018956C98E1E0F1E080818FEF9F
:100150008083259AEAE6F0E0808181608083EC9AD2
:0E01600008950E94A3007894FFCFF894FFCF7B
:00000001FF
