S0120000696E74657272757074732E73726563B2
S11300000C9472000C9484000C9484000C9484006E
S11300100C9484000C9486000C9484000C9484004A
S11300200C9484000C9484000C9484000C9484003C
S11300300C9484000C9484000C9484000C9484002C
S11300400C9484000C9484000C9484000C9484001C
S11300500C9484000C9484000C9484000C9484000C
S11300600C9484000C9484000C9484000C948400FC
S11300700C9484000C9484000C9484000C948400EC
S11300800C9484000C9484000C9484000C948400DC
S11300900C9484000C9484000C9484000C948400CC
S11300A00C9484000C9484000C9484000C948400BC
S11300B00C9484000C9484000C9484000C948400AC
S11300C00C9484000C9484000C9484000C9484009C
S11300D00C9484000C9484000C9484000C9484008C
S11300E00C94840011241FBECFEFD1E2DEBFCDBF3C
S11300F012E0A0E0B2E001C01D92A230B107E1F726
S11301000E94B3000C94B7000C9400001F920F924D
S11301100FB60F9211248F939F93809100029091B8
S113012001020196909301028093000285B190E24E
S1130130892785B980910002809302019F918F9154
S11301400F900FBE0F901F9018956C98E1E0F1E0AE
S113015080818FEF8083259AEAE6F0E080818160D8
S11301608083EC9A08950E94A5007894FFCFF894B8
S1050170FFCFBB
S9030000FC
