S00D0000736572766F2E73726563E8
S11300000C9472000C947C000C947C000C947C0086
S11300100C947C000C947C000C947C000C947C006C
S11300200C947C000C947C000C947C000C947C005C
S11300300C947C000C947C000C947C000C947C004C
S11300400C947C000C947C000C947C000C947C003C
S11300500C947C000C947C000C947C000C947C002C
S11300600C947C000C947C000C947C000C947C001C
S11300700C947C000C947C000C947C000C947C000C
S11300800C947C000C947C000C947C000C947C00FC
S11300900C947C000C947C000C947C000C947C00EC
S11300A00C947C000C947C000C947C000C947C00DC
S11300B00C947C000C947C000C947C000C947C00CC
S11300C00C947C000C947C000C947C000C947C00BC
S11300D00C947C000C947C000C947C000C947C00AC
S11300E00C947C0011241FBECFEFD1E2DEBFCDBF44
S11300F00E949A000C949D000C940000E0EAF0E049
S1130100808180648083E1EAF0E080818B60808379
S11301108FEF9FEF9093A7008093A60080E09EEF5F
S11301209093A9008093A800E1E0F1E080818860C9
S1110130808308950E947E00FFCFF894FFCFD5
S9030000FC
