:100000000C9472000C947C000C947C000C947C008A
:100010000C947C000C947C000C947C000C947C0070
:100020000C947C000C947C000C947C000C947C0060
:100030000C947C000C947C000C947C000C947C0050
:100040000C947C000C947C000C947C000C947C0040
:100050000C947C000C947C000C947C000C947C0030
:100060000C947C000C947C000C947C000C947C0020
:100070000C947C000C947C000C947C000C947C0010
:100080000C947C000C947C000C947C000C947C0000
:100090000C947C000C947C000C947C000C947C00F0
:1000A0000C947C000C947C000C947C000C947C00E0
:1000B0000C947C000C947C000C947C000C947C00D0
:1000C0000C947C000C947C000C947C000C947C00C0
:1000D0000C947C000C947C000C947C000C947C00B0
:1000E0000C947C0011241FBECFEFD1E2DEBFCDBF48
:1000F0000E9487000C948A000C9400008FEF80937C
:100100000101E2E0F1E080818064808308950E9433
:080110007E00FFCFF894FFCF41
:00000001FF
