:100000000C9472000C947C000C947C000C947C008A
:100010000C947C000C947C000C947C000C947C0070
:100020000C947C000C947C000C947C000C947C0060
:100030000C947C000C947C000C947C000C947C0050
:100040000C947C000C947C000C947C000C947C0040
:100050000C947C000C947C000C947C000C947C0030
:100060000C947C000C947C000C947C000C947C0020
:100070000C947C000C947C000C947C000C947C0010
:100080000C947C000C947C000C947C000C947C0000
:100090000C947C000C947C000C947C000C947C00F0
:1000A0000C947C000C947C000C947C000C947C00E0
:1000B0000C947C000C947C000C947C000C947C00D0
:1000C0000C947C000C947C000C947C000C947C00C0
:1000D0000C947C000C947C000C947C000C947C00B0
:1000E0000C947C0011241FBECFEFD1E2DEBFCDBF48
:1000F0000E9460010C9465010C94000080EF8093D5
:1001000004018FE0809305018FEF8093010110922D
:10011000020108958091030190E0089584E090E049
:1001200041E050E09A01082E02C0220F331F0A94CA
:10013000E2F7622F6095607F609305016091030193
:100140006F706F3029F401968830910551F0EACF35
:100150008FE08093050120953095207F3070C90194
:10016000089508951F93109103010E948E00212F7E
:1001700030E0282B392B2E3B310509F46FC02F3B83
:10018000310508F52E37310509F454C02F373105F4
:1001900068F42B37310509F443C02D37310509F4D4
:1001A00044C02737310509F086C036C02B3B3105E6
:1001B00009F44AC02D3B310509F44BC0273B3105FA
:1001C00009F079C03CC02E3D310509F45BC02F3DDC
:1001D000310568F42B3D310509F44AC02D3D310548
:1001E00009F44BC0273D310509F065C03CC02B3EEA
:1001F000310509F451C02C3E310528F4273E310564
:1002000009F059C044C02D3E310509F44AC02E3EC4
:10021000310509F050C04AC01092020180E34EC07F
:1002200081E08093020181E349C082E08093020172
:1002300082E344C083E08093020183E33FC084E013
:100240008093020184E33AC085E08093020185E354
:1002500035C086E08093020186E330C087E080935A
:10026000020187E32BC088E08093020188E326C067
:1002700089E08093020189E321C08AE08093020132
:1002800081E41CC08BE08093020182E417C08CE003
:100290008093020183E412C08DE08093020184E424
:1002A0000DC08EE08093020185E408C08FE080934A
:1002B000020186E403C01092020180E21F910895BA
:0E02C0000E947E000E94B200FDCFF894FFCF96
:00000001FF
