:100000000C9472000C947C000C947C000C947C008A
:100010000C947C000C947C000C947C000C947C0070
:100020000C947C000C947C000C947C000C947C0060
:100030000C947C000C947C000C947C000C947C0050
:100040000C947C000C947C000C947C000C947C0040
:100050000C947C000C947C000C947C000C947C0030
:100060000C947C000C947C000C947C000C947C0020
:100070000C947C000C947C000C947C000C947C0010
:100080000C947C000C947C000C947C000C947C0000
:100090000C947C000C947C000C947C000C947C00F0
:1000A0000C947C000C947C000C947C000C947C00E0
:1000B0000C947C000C947C000C947C000C947C00D0
:1000C0000C947C000C947C000C947C000C947C00C0
:1000D0000C947C000C947C000C947C000C947C00B0
:1000E0000C947C0011241FBECFEFD1E2DEBFCDBF48
:1000F0000E94AC000C94B1000C94000082E080934C
:100100000B01089584B18E6084B988E08093070163
:10011000EAE0F1E080818F6080832998E8E0F1E0F7
:100120008081886080832B9A08952A9A08950E947E
:100130007E000E94950085B192E0892785B9E8E0AC
:10014000F1E0808128E0822780838081822780837C
:1001500085B1892785B908950E9482000E94970081
:06016000FFCFF894FFCF71
:00000001FF
