:100000000C9472000C9484000C9484000C94840072
:100010000C9484000C9484000C9484000C94840050
:100020000C9484000C9484000C9484000C94840040
:100030000C9484000C9484000C9484000C94840030
:100040000C9484000C9495000C9484000C9484000F
:100050000C9484000C9484000C9484000C94840010
:100060000C9484000C9484000C9484000C94840000
:100070000C9484000C9484000C9484000C948400F0
:100080000C9484000C9484000C9484000C948400E0
:100090000C9484000C9484000C9484000C948400D0
:1000A0000C9484000C9484000C9484000C948400C0
:1000B0000C9484000C9484000C9484000C948400B0
:1000C0000C9484000C9484000C9484000C948400A0
:1000D0000C9484000C9484000C9484000C94840090
:1000E0000C94840011241FBECFEFD1E2DEBFCDBF40
:1000F00012E0A0E0B2E001C01D92A230B107E1F72A
:100100000E94C3000C94CA000C94000084E0809309
:1001100081008FEF9FEF9093890080938800EFE636
:10012000F0E080818260808308951F920F920FB665
:100130000F9211242F938F939F932091020181E0BE
:1001400090E00090000202C0880F991F0A94E2F725
:1001500028272093020180910002909101020196CC
:1001600090930102809300028830910521F410924F
:100170000102109200029F918F912F910F900FBE5C
:100180000F901F90189578940E9486008FEF8093AF
:080190000101FFCFF894FFCF3D
:00000001FF
