S00D000074696D65722E73726563F6
S11300000C9472000C9484000C9484000C9484006E
S11300100C9484000C9484000C9484000C9484004C
S11300200C9484000C9484000C9484000C9484003C
S11300300C9484000C9484000C9484000C9484002C
S11300400C9484000C9484000C9484000C9484001C
S11300500C9484000C9498000C9484000C948400F8
S11300600C9484000C9484000C9484000C948400FC
S11300700C9484000C9484000C9484000C948400EC
S11300800C9484000C9484000C9484000C948400DC
S11300900C9484000C9484000C9484000C948400CC
S11300A00C9484000C9484000C9484000C948400BC
S11300B00C9484000C9484000C9484000C948400AC
S11300C00C9484000C9484000C9484000C9484009C
S11300D00C9484000C9484000C9484000C9484008C
S11300E00C94840011241FBECFEFD1E2DEBFCDBF3C
S11300F012E0A0E0B2E001C01D92A230B107E1F726
S11301000E94CA000C94D1000C94000080EC84BDC1
S113011085E085BD8FEF87BDEEE6F0E080818260EB
S11301208083279AEBE6F0E08081806880830895DD
S11301301F920F920FB60F9211242F938F939F93B8
S11301402091020181E090E00090000202C0880F3B
S1130150991F0A94E2F72827209302018091000254
S1130160909101028730910521F4109201021092BE
S11301700002809100029091010201969093010285
S1130180809300029F918F912F910F900FBE0F903B
S11301901F90189578940E9486008FEF8093010138
S10901A0FFCFF894FFCF2D
S9030000FC
