:100000000C9472000C947C000C947C000C947C008A
:100010000C947C000C947C000C947C000C947C0070
:100020000C947C000C947C000C947C000C947C0060
:100030000C947C000C947C000C947C000C947C0050
:100040000C947C000C947C000C947C000C947C0040
:100050000C947C000C947C000C947C000C947C0030
:100060000C947C000C947C000C947C000C947C0020
:100070000C947C000C947C000C947C000C947C0010
:100080000C947C000C947C000C947C000C947C0000
:100090000C947C000C947C000C947C000C947C00F0
:1000A0000C947C000C947C000C947C000C947C00E0
:1000B0000C947C000C947C000C947C000C947C00D0
:1000C0000C947C000C947C000C947C000C947C00C0
:1000D0000C947C000C947C000C947C000C947C00B0
:1000E0000C947C0011241FBECFEFD1E2DEBFCDBF48
:1000F0000E94A0000C94B1000C940000E7E0F1E035
:10010000808188608083219A229A239A8FEF80933E
:100110000A0180930B012998E8E0F1E08081886072
:1001200080832B9A08952998299A0895E8E0F1E0B0
:100130008081877F8083808188608083089508958F
:10014000CF93DF930E947E0009C02A9A0E949300F9
:100150002196C830D105CCF30E949600C0E0D0E0D3
:06016000F8CFF894FFCF78
:00000001FF
